:020000040800F2
:10000000000003204D19000821F2000825F2000825
:1000100029F200082DF2000831F20008000000006B
:1000200000000000000000000000000035F20008A1
:1000300039F20008000000003DF2000841F200081B
:1000400091190008911900089119000891190008E8
:1000500091190008911900089119000891190008D8
:1000600091190008911900089119000891190008C8
:1000700091190008911900089119000891190008B8
:10008000FDF2000891190008911900089119000863
:100090009119000891190008911900089119000898
:1000A0009119000891190008911900089119000888
:1000B0009119000891190008911900089119000878
:1000C0009119000891190008911900089119000868
:1000D0009119000891190008911900089119000858
:1000E0009119000891190008911900089119000848
:1000F0009119000891190008911900089119000838
:1001000091190008B1F2000891190008911900082E
:100110009119000891190008911900089119000817
:10012000B5F200089119000891190008911900080A
:1001300091190008911900089119000891190008F7
:1001400091190008911900089119000891190008E7
:1001500091190008911900089119000891190008D7
:1001600091190008911900089119000891190008C7
:1001700091190008911900089119000891190008B7
:10018000911900089119000840F24C430146C2F24F
:100190000003186800F008B840F24C430146C2F270
:1001A0000003186801F040B92DE9F04F01F10B048C
:1001B000162C83B0064631D924F00704E30F8C4295
:1001C0002CBF194643F00101002930D1304600F020
:1001D000ABFBB4F5FC7F2FD24FEAD40C40F23805CC
:1001E000C2F2000505EBCC022F46D368934200F023
:1001F0002D825C6803F10808DA68304624F00304B5
:1002000099681B195C68CA6044F0010491605C60E5
:1002100000F08CFB404603B0BDE8F08F00231024B3
:100220008C422CBF194643F001010029CED00C238B
:100230004FF000083360EDE75FEA542C04BF4FEA4B
:10024000D40C4FEACC0040F0868040F23805C2F270
:10025000000528182F46C368984206D10DE00029F2
:1002600080F27981DB68984207D05A6822F0030255
:10027000111B0F29F3DD0CF1FF3C0CF1010CBD4A01
:1002800093689A4208BF786824D0586820F0030029
:10029000011B0F2900F3C0810029D260926080F217
:1002A0009480B0F5007F80F07781C0084FF0010E98
:1002B000D7F8048007EBC00180100EFA00F0D96077
:1002C000D1F808E040EA08007860C3F808E0CEF80A
:1002D0000C308B604FF0010E4FEAAC030EFA03FEB8
:1002E00086457DD810EA0E0F08D12CF0030C4FEA9A
:1002F0004E0E0CF1040C10EA0E0FF8D007EBCC0AEE
:10030000E146D046D8F80C00804507D196E1002B95
:1003100080F2A681C068804500F09081416821F09C
:1003200003010B1B0F2BF2DD8046C568011944F059
:10033000010E58F8087F43F00104C0F804E030468D
:100340004C60FD60AF60D1609160CA608A60CB5044
:1003500000F0ECFA5EE7BCF1040F9EBF4FEA941C7C
:100360000CF1380C4FEACC007FF66FAFBCF1140FE4
:100370009CBF0CF15B0C4FEACC007FF666AFBCF182
:10038000540F9EBF4FEA143C0CF16E0C4FEACC00A8
:100390007FF65BAFBCF5AA7F9EBF4FEAD43C0CF161
:1003A000770C4FEACC007FF650AF40F254539C4597
:1003B00095BF4FEA944C4FF47C700CF17C0C4FF0DD
:1003C0007E0C98BF4FEACC003FE71A1803F10808EB
:1003D0003046536843F00103536000F0A7FA19E771
:1003E000D7F80880D8F8043023F003094C45C4EB53
:1003F000090294BF002301230F2AD8BF43F0010351
:10040000002B00F0B98040F2C05AD5F80834C2F28F
:10041000000A3046B3F1FF3FDAF8002002F1100B7A
:10042000A3441FBF0BF57E6B0BF11F0B2BF47E6BF0
:100430002BF01F0B594600F061FDB0F1FF3F034662
:1004400000F0188108EB0901814200F21081DAF80E
:10045000042081425A44CAF8042000F03E81D5F8B5
:1004600008E440F23805C2F20005BEF1FF3F17BFB5
:100470008218C5F80804C1EB0201CAF8041010F094
:10048000070517BFC5F108054FF48055431905F559
:10049000805503EB0B02304601931205120DAD1A85
:1004A000294600F02BFD019BB0F1FF3F00F02C81AD
:1004B000C11A491941F00101DAF80420B84540F2A7
:1004C000C05BBB602A44C2F2000B5960CAF804202A
:1004D00017D0B9F10F0F40F2E180A9F10C03D8F861
:1004E000045023F00703052008EB03010F2B05F050
:1004F000010543EA0505C8F804504860886000F229
:10050000FB80DAF82C1040F2C053C2F200038A429A
:10051000DAF8301088BFDA6240F2C0538A42C2F281
:10052000000340F2A780D7F808801A63D8F8043097
:1005300023F003039C42C4EB030294BF0023012376
:100540000F2AD8BF43F00103B3B130464FF0000883
:1005500000F0ECF95EE69A18D9689C6803F1080887
:100560005568304645F00103E1608C60536000F04F
:10057000DDF94FE64000002008EB040342F00102E1
:1005800044F001043046C8F8044008F108085A60F5
:10059000BB6000F0CBF93DE6410A04299CBF4FEA5D
:1005A000901E0EF1380E1DD9142998BF01F15B0E73
:1005B00018D954299CBF4FEA103E0EF16E0E11D986
:1005C000B1F5AA7F9CBF4FEAD03E0EF1770E09D954
:1005D00040F2545E714596BF4FEA904E4FF07E0E4A
:1005E0000EF17C0E07EBCE08D8F80810414503D178
:1005F00047E08968884505D0D1F804E02EF0030E65
:100600007045F6D3D1F80CE0C3F80CE09960786837
:10061000CB60CEF808305DE61D1941F00107D560CA
:1006200044F00104956030465C6003F10808EA601C
:10063000AA606F60695000F079F9EBE509F10109F2
:1006400019F0030F2FD008F108085BE603F1080248
:100650005B699A4208BF0CF1020C3FF410AEC8E58A
:1006600080464318C268304658F8081FCAE5B845A6
:100670003FF4EDAED7F80880D8F8043023F0030338
:1006800058E74FF00109D7F804804FEAAE008E46D4
:1006900009FA00F048EA00007860B5E798460122C0
:1006A0005A60002346E751461CF0030F0B460CF13D
:1006B000FF3C2CD053F808199942F5D07B684FEADB
:1006C0004E0E9E453FF68CAEBEF1000F3FF488AE55
:1006D0001EEA030F20D0CC4610E64FEA015E4FEA37
:1006E0001E5EBEF1000F7FF4BAAEBB680BEB0901D2
:1006F00041F00101596004E7304608F1080100F0BB
:1007000093FEDBF80420FCE601210025D4E67B689B
:1007100023EA0E037B60D1E74FEA4E0E09F104098C
:10072000D6E700BF032A2DE9F00109D82AB100233A
:10073000CC5CC45401339342FAD1BDE8F001704758
:100740000B468218014603E02478013301F8014B7F
:1007500011F0030F1C46F7D113F003055DD06E4274
:10076000C5F1040CED009B594FEACC0C08E00434B1
:10077000A7593B4607FA0CF748EA070741F8047BFC
:10078000571A23FA05F8032FF1DC03E014F8013BB4
:1007900001F8013B8A42F9D8CFE753F8404C41F8C1
:1007A000404C53F83C4C41F83C4C53F8384C41F821
:1007B000384C53F8344C41F8344C53F8304C41F831
:1007C000304C53F82C4C41F82C4C53F8284C41F841
:1007D000284C53F8244C41F8244C53F8204C41F851
:1007E000204C53F81C4C41F81C4C53F8184C41F861
:1007F000184C53F8144C41F8144C53F8104C41F871
:10080000104C53F80C4C41F80C4C53F8084C41F880
:10081000084C53F8044C41F8044C561A1D460C463B
:10082000403340313F2EB8DC2B460FE053F8101C0C
:1008300044F8101C53F80C1C44F80C1C53F8081C0A
:1008400044F8081C53F8041C44F8041C161B2146E9
:100850001D46103410330F2EE8DC2B4602E02468CE
:1008600041F8044B551A1C46032D03F10403F6DC32
:1008700090E700BF032AC9B270B408D82AB1034672
:10088000121803F8011B9342FBD170BC7047821809
:10089000044601E004F8011B14F0030FFAD14FF0F5
:1008A000013303FB01F31FE044F8403C44F83C3CB7
:1008B00044F8383C44F8343C44F8303C44F82C3C90
:1008C00044F8283C44F8243C44F8203C44F81C3CC0
:1008D00044F8183C44F8143C44F8103C44F80C3CF0
:1008E00044F8083C44F8043C161B254640343F2E8F
:1008F000DADC2C4607E044F8103C44F80C3C44F8A1
:10090000083C44F8043C161B254610340F2EF2DC3C
:1009100001E045F8043B541B032CFADC01E005F828
:10092000011B9542FBD3B0E7704700BF704700BF83
:100930002DE9F04F1D4689B002EB420306465442B2
:100940005B000191910816F0030F0092029106934B
:10095000059640F08280009A12F0030F7DD1019B32
:10096000B2F1040A18BF4FF0010A062B7AD9019A96
:10097000009B5708072A03FB076740F0418106994F
:1009800006EB0109BAF1000F40F05C8133683A6868
:1009900032603B60009AC8464F464FF0000BB218D9
:1009A000049291460392B94540F2A880BBF1000F32
:1009B00000F02882039A019BC2EB090C921B62454E
:1009C000A8BF62460099002A01FB036B15DDBAF14E
:1009D000020FC2EB090340F06381B018059ACDF80D
:1009E0000490B9461F78117802F8017B824203F81F
:1009F000011BF7D14F46DDF80490009AC8EB0B03BA
:100A0000C7EB08079B1ABB4234BF1A463A46002A76
:100A100011DDBAF1020FC2EB0B0308BF09EB0200B4
:100A200040F04D81197899F8002009F8011B8145A3
:100A300003F8012BF6D1009B6345C0F013810099A8
:100A4000B94258D23846C7EB0B0600F041FE16F00B
:100A5000030F059601903FF47EAF019B4FF0020A11
:100A6000062B84D80099009A01FB036106EB020B68
:100A70008B4501913FD22B465742D9465546BB4440
:100A80009A464E4531D253465C46B24649461E46CA
:100A90000AE0C7EB080321681A6819602260E419AC
:100AA000E31B9A451ED2414601EB07084046B0477A
:100AB000002817DD002DECD0012D00F0FD810099FC
:100AC000C7EB08022346AC46107801391D7800298F
:100AD00002F8015B03F8010BF6DC6546E419E31B41
:100AE0009A45E0D3334656469A46009B019999446D
:100AF0009B448945C5D309B0BDE8F08F48463146CF
:100B0000A84700280DDC58E03B68D8F800203A6080
:100B1000C8F80030A0444FF0010B3F19B9453FF62B
:100B200045AF38463146A847002814DBF5D1BAF165
:100B3000000FE9D0BAF1010F1FD000993A464346A1
:100B40001078013993F800C0002902F801CB03F8AE
:100B5000010BF5DCDEE7B9453FF628AFBAF1000F2F
:100B60001AD1D9F800303A68C9F800203B60009AE1
:100B70003F194FF0010B914415E7029B394642465D
:100B8000A4460868013B1468002B41F8044B42F866
:100B9000040BF6DC6446BDE7BAF1010F21D00099E1
:100BA0004A463B461078013993F800C0002902F804
:100BB00001CB03F8010BF5DCD9E70FD1BAF1000F37
:100BC0005BD10399D9F800200B680A60C9F800309E
:100BD000039A4FF0010B009BD218039200998944AD
:100BE000E1E6029B49463A46A4460868013B146880
:100BF000002B41F8044B42F8040BF6DC6446B6E7E0
:100C0000019A009B02F1FF39282A98BFB34603FBE3
:100C1000096998BFC8466CD858463946A847002885
:100C200059DB38464146A84700283FF7ABAE584647
:100C30004146A84738EA200728BF5F46BAF1000FAF
:100C40003FF4A4AEBAF1010F00F09680009A33464B
:100C50001978013A3878002A03F8010B07F8011BCC
:100C6000F6DC97E61946604600F032FD009A2B4606
:100C700001463046FFF75CFEE1E6BAF1010F1EBF08
:100C80004B460099039A00F083801078013993F85D
:100C900000C0002902F801CB03F8010BF5DC97E74F
:100CA00005999208CDF80490B9460868013A1F6882
:100CB000002A41F8047B43F8040BF6DC9AE692081C
:100CC000D9F80010013A1868002A49F8040B43F8D3
:100CD000041BF5DCAFE638464146A8470028FFF67E
:100CE00051AE58464146A8473BEA200728BF474631
:100CF00048E60099D308304601FB03F306EB030BEB
:100D00005946039306EB4308A84700286DDB584675
:100D10004146A847002840F3E880039A39465242EA
:100D20000792BB18039A0493184607EB0208A847DA
:100D300000284CDB38464146A847002840F3CC80C9
:100D4000039B0799A9EB430309EB0108039318469A
:100D50004146A84700282ADB40464946A8470028C4
:100D60003FF75AAF03984946A847DDF80C8018EAC8
:100D7000200838BFC8464FE7029B32461168013B46
:100D80003868002B42F8040B47F8041BF6DC01E638
:100D900003994A46029BA4460868013B1468002B4D
:100DA00041F8044B42F8040BF6DC644610E7404679
:100DB0004946A8470028FFF62FAF03984946A847A1
:100DC000DDF80C8038EA200828BFC84624E73846FA
:100DD0004146A8470028B3DB04984146A847049F32
:100DE00037EA200728BF4746AAE758464146A847A2
:100DF000002892DB30464146A84736EA200B28BF40
:100E0000C3468AE7019B0099049A01FB036393425E
:100E100001937FF670AE2B464F425546914602EB4A
:100E2000070B9A464E4530D253465C46B246494679
:100E30001E460AE0C7EB080321681A6819602260A1
:100E4000E419E31B9A451DD2414601EB07084046D1
:100E5000B047002816DD002DECD0012D1CD00099E4
:100E6000C7EB08022346AC46107801391D780029EB
:100E700002F8015B03F8010BF6DC6546E419E31B9D
:100E80009A45E1D3334656469A46009B01999944C8
:100E90009B444945C6D82EE6029BC7EB0801224673
:100EA000AC460868013B1568002B41F8045B42F82A
:100EB000040BF6DC6546E1E7029BC7EB080122461E
:100EC000AC460868013B1568002B41F8045B42F80A
:100ED000040BF6DC654601E604984146A847049FEA
:100EE00017EA200738BF47462AE730464146A84759
:100EF00038EA200B28BFB3460FE700BF38B542F2EF
:100F00003004C2F20004054608460023236013F0B3
:100F10007DFBB0F1FF3F00D038BD2368002BFBD034
:100F20002B6038BD40F24843C2F2000370B41D6824
:100F300010F8013BEC181A46647804F00304012C05
:100F400011F8014B08BF03F120022E1923467678D1
:100F500006F00306012E08BF04F12003D21A01D1C6
:100F6000002BE5D1104670BC704700BF10F0030F96
:100F700038B5044612D10368A3F1013222EA030313
:100F800013F0803F0AD1031D184653F8042BA2F139
:100F9000013525EA020212F0803FF5D003782BB12B
:100FA000431C184613F8012B002AFAD100F0F0F880
:100FB000204638BD80EA010212F0030F3AD110F04A
:100FC000030220F0030021F0030150F804CB08BF16
:100FD00051F8043B0DD082F003024FEAC2026FF0D9
:100FE0007F4323FA02F251F8043B4CEA020C43EA35
:100FF000020300BFACF101329C4501BF22EA0C02A2
:1010000012F0803F50F804CB51F8043BF2D04FEA85
:101010000C604FEA1C2C012828BFB0EB036F08BFFF
:101020001B0AF4D003F0FF034FEA1060A0EB0300AB
:10103000704700BF10F0030F0AD010F8012B11F811
:10104000013B012A28BF9A42F4D0A2EB030070476B
:101050004DF8045D4DF8044D4FF0010242EA0222C2
:1010600042EA024201F0030C21F0030150F8044B64
:1010700051F8045BBCF1020F26D04BD824F07F4C12
:10108000BCEB152FA4EB020323EA04030DD113EAF2
:10109000C21308BF51F8045B0AD18CEA040CBCEB04
:1010A000056F0CD150F8044BE8E74FEA15255CE0DA
:1010B00033F07F4352D10D784FEA146C55E04FEA7C
:1010C000146C05F0FF0550E04FEA044CA4EB02035A
:1010D0004FEA1C4C23EA0403BCEB154F17D113EA6B
:1010E000C21308BF51F8045B07D18CEA040CBCEBB7
:1010F000054F08D150F8044BE6E71B042ED10D88AC
:101100004FEA144C31E04FEA05454FEA144C4FEAE0
:1011100015452AE004F0FF0CBCEB156FA4EB0203AD
:1011200023EA04030DD113EAC21308BF51F8045B8C
:101130000AD18CEA040CBCEB052F0AD150F8044B01
:10114000E8E74FEA156510E014F0FF0F06D051F8FC
:10115000045B4FEA142C25F07F4506E04FF00000B9
:101160005DF8044B5DF8045B70470CF0FF0205F07E
:10117000FF00012828BF904204BF4FEA1C2C2D0A13
:10118000F3D0A2EB00005DF8044B5DF8045B704700
:1011900080EA0102844612F0030F4FD111F0030FD1
:1011A00032D14DF8044D11F0040F51F8043B0BD02F
:1011B000A3F101329A4312F0803F04BF4CF8043B84
:1011C00051F8043B16D100BF51F8044BA3F1013292
:1011D0009A4312F0803FA4F101320BD14CF8043B4A
:1011E000A24312F0803F04BF51F8043B4CF8044B7B
:1011F000EAD023460CF8013B13F0FF0F4FEA3323EC
:10120000F8D15DF8044B704711F0010F06D011F8CA
:10121000012B0CF8012B002A08BF704711F0020FB8
:10122000BFD031F8022B12F0FF0F16BF2CF8022BA3
:101230008CF8002012F47F4FB3D1704711F8012BC6
:101240000CF8012B002AF9D1704700BF20F00301F0
:1012500010F00300C0F1000051F8043B00F1040C51
:101260004FEACC0C6FF000021CBF22FA0CF21343C1
:101270004FF0010C4CEA0C2C4CEA0C4CA3EB0C028A
:1012800022EA030212EACC1204BF51F8043B0430F4
:10129000F4D013F0FF0F1FBF013013F47F4F013064
:1012A00013F47F0F18BF0130704700BF037830B4CC
:1012B0009BB140F248450246C2F200052C6819462F
:1012C000E418647804F00304012C08BF03F1200142
:1012D000117012F8013F002BF0D130BC704700BFF5
:1012E00041EA000313F0030F0B4670B414BF00244F
:1012F0000124032A94BF002404F001040546D4B954
:10130000BAB10E782B46013A03F8016B56B1AC1C0A
:101310007AB111F8015F2346013A04F8015C013407
:10132000002DF5D12AB19A18002103F8011B934230
:10133000FBD170BC7047194653F8044BA4F1013639
:1013400026EA040616F0803FDAD1043A45F8044B49
:10135000032A1946EFD8D3E770B503460C4659B1B6
:10136000002501E0431C05461846214600F028F9F7
:101370000028F7D1284670BDBDE8704000F020B9C4
:10138000F8B540F23804C2F200040F460546FFF7F4
:10139000CBFAA3685E6826F0030606F57E630F337A
:1013A000DF1B3F0B013F3F03B7F5805F07DB0021E9
:1013B0002846FFF7A3FDA3689B19984204D028464E
:1013C000FFF7B4FA0020F8BD79422846FFF796FDF2
:1013D000B0F1FF3F10D040F2C453A168C2F2000345
:1013E000F61B284646F001061A684E60D71B1F60A0
:1013F000FFF79CFA0120F8BD00212846FFF77EFD8B
:10140000A368C21A0F2ADADD40F2404440F2C45108
:10141000C2F20004C2F2000142F001025A602368E5
:10142000C01A0860CBE700BF2DE9F0410D46044625
:10143000002958D0FFF778FAA5F1080240F23800E9
:101440005668C2F2000026F00103D0F808C0D11897
:101450008C454F6827F0030765D016F001064F60F2
:1014600031D00026CD196D6815F0010F06D1DB19BA
:10147000002E4BD08D68C968E9608D6043F0010192
:10148000D3505160D6B9B3F5007F2ED3590A042941
:101490006BD89E093836F5004519A968A94203D1D1
:1014A00069E089688D4204D0486820F003008342D7
:1014B000F7D3CB68D3609160CA609A602046BDE8DC
:1014C000F041FFF733BA55F8085C00F1080C521BE5
:1014D0005B199568654546D0D2F80CC0C5F80CC0BC
:1014E000CCF80850BEE7BDE8F081DB08012546686E
:1014F00000EBC3019B1015FA03F3D1608D6846EA37
:10150000030343609560EA608A60D7E78D682B4FDC
:10151000BD42B0D1EA6043F00101AA60D560956098
:101520005160D350CAE716F0010F3B4407D155F87C
:10153000081C521A5B189568D168E9608D6040F20A
:10154000444143F00105C2F20001556082600A681F
:101550009342B3D340F2C0532046C2F2000319684D
:10156000FFF70EFFAAE701267CE714290CD801F14A
:101570005B06F50090E701254768B6100B46B540BD
:1015800047EA0505456095E7542903D81E0B6E36DA
:10159000F50081E7B1F5AA7F03D8DE0B7736F500B9
:1015A0007AE740F25455A94203D89E0C7C36F500E8
:1015B00072E74FF47C757E266EE700BF4000002086
:1015C000C9B2F0B4002950D010F0030F10D0037846
:1015D000002B79D0994246D0431C05E013F8012B2B
:1015E000002A3FD091423ED013F0030F1846F5D1A8
:1015F000036841EA01270646A3F1013247EA07479B
:1016000022EA030212F0803F1DD187EA0303A3F10F
:10161000013222EA030313F0803F14D1043002E0C8
:1016200012F0803F0FD1064650F8043BA3F101357C
:1016300087EA030225EA0303A2F1013413F0803F95
:1016400024EA0202ECD033783046002B3CD0994299
:1016500009D0731C01E0914205D0184613F8012B04
:10166000002AF8D11046F0BC704710F0030F0CD0E0
:101670000378002BF7D0431C03E013F8012B002A5A
:10168000F1D013F0030F1846F7D102680346A2F118
:10169000013121EA020212F0803F0AD104300346F0
:1016A00050F8042BA2F1013121EA020212F0803F2E
:1016B000F5D01A781846002AD5D00133184613F809
:1016C000012B002AFAD1CEE71846CCE70000000033
:1016D0004A1E08BF7047C0F02481884240F216813C
:1016E000114200F01781B0FA80F3B1FA81F2A2EB57
:1016F0000303C3F11F0304A202EB03134FF0000224
:101700009F4600BFAFF30080B0EBC17F00BF42EB4C
:10171000020228BFA0EBC170B0EB817F00BF42EB9B
:10172000020228BFA0EB8170B0EB417F00BF42EB0B
:10173000020228BFA0EB4170B0EB017F00BF42EB7B
:10174000020228BFA0EB0170B0EBC16F00BF42EBFB
:10175000020228BFA0EBC160B0EB816F00BF42EB7B
:10176000020228BFA0EB8160B0EB416F00BF42EBEB
:10177000020228BFA0EB4160B0EB016F00BF42EB5B
:10178000020228BFA0EB0160B0EBC15F00BF42EBDB
:10179000020228BFA0EBC150B0EB815F00BF42EB5B
:1017A000020228BFA0EB8150B0EB415F00BF42EBCB
:1017B000020228BFA0EB4150B0EB015F00BF42EB3B
:1017C000020228BFA0EB0150B0EBC14F00BF42EBBB
:1017D000020228BFA0EBC140B0EB814F00BF42EB3B
:1017E000020228BFA0EB8140B0EB414F00BF42EBAB
:1017F000020228BFA0EB4140B0EB014F00BF42EB1B
:10180000020228BFA0EB0140B0EBC13F00BF42EB9A
:10181000020228BFA0EBC130B0EB813F00BF42EB1A
:10182000020228BFA0EB8130B0EB413F00BF42EB8A
:10183000020228BFA0EB4130B0EB013F00BF42EBFA
:10184000020228BFA0EB0130B0EBC12F00BF42EB7A
:10185000020228BFA0EBC120B0EB812F00BF42EBFA
:10186000020228BFA0EB8120B0EB412F00BF42EB6A
:10187000020228BFA0EB4120B0EB012F00BF42EBDA
:10188000020228BFA0EB0120B0EBC11F00BF42EB5A
:10189000020228BFA0EBC110B0EB811F00BF42EBDA
:1018A000020228BFA0EB8110B0EB411F00BF42EB4A
:1018B000020228BFA0EB4110B0EB011F00BF42EBBA
:1018C000020228BFA0EB0110B0EBC10F00BF42EB3A
:1018D000020228BFA0EBC100B0EB810F00BF42EBBA
:1018E000020228BFA0EB8100B0EB410F00BF42EB2A
:1018F000020228BFA0EB4100B0EB010F00BF42EB9A
:10190000020228BFA0EB0100104670470CBF012067
:1019100000207047B1FA81F2C2F11F0220FA02F0F2
:10192000704708B14FF0FF3000F00EB80029F8D032
:101930002DE90340FFF7CCFEBDE8064002FB00F3B3
:10194000A1EB0301704700BF704700BF002103E017
:101950000A4B5B584350043109480A4B42189A42DB
:10196000F6D3094A02E0002342F8043B074B9A42AF
:10197000F9D30DF0FFFC00F08DF9704780AB020841
:1019800000000020400500204005002034200020F9
:10199000FEE700002DE9F843578813889488D0F8B3
:1019A0007C9001379046D288D9F80800D9F80C50BD
:1019B000FF1A7F00944213D805FB04350E4600EB56
:1019C0004505284631463A46FEF7ACFEB8F80630E3
:1019D000D9F80C000134A3423E4405EB4005F0D297
:1019E0000120BDE8F88300BF38B51546C46F41B18A
:1019F00008462168FEF796FE23685B192360284697
:101A000038BD63685B192360284638BD10B5A2B0A5
:101A1000034641600160009302A80F494FF48053D0
:101A200009F0ACFB024650B90998B0F5A07F02D886
:101A30000A99F02909D90724204622B010BD04468E
:101A4000014606480FF084FBF6E702A8044909F0B6
:101A50005DFF0446F0E700BFE91900080CA4020886
:101A6000951900082DE9F04F0F46C168D0F808B06D
:101A7000002387B0FB621039044607F045FD30B102
:101A80002046594607F040FD07B0BDE8F08F2046DC
:101A900001A9102205AB06F00BFF0028F0D1019B35
:101AA000484A934207D002F17F4101F5981000F5B2
:101AB00080729342E4D17D68E668012DBD6A18BF4B
:101AC0006D004FEA0518C8EB06062046A6F108018E
:101AD00007F01AFD0028D3D1204601A9102205AB3A
:101AE00006F0E6FE0028CBD1019A374B9A4256D039
:101AF000D4F80C90DFF8CCA0C8EB0906204631469C
:101B000007F002FD0028BBD1204601A9102205AB39
:101B100006F0CEFE0028B3D1019B534510D02B49CF
:101B20008B420DD0012D0EDD6D104FEA0518C8EB6C
:101B300009062046314607F0E7FC0028A0D1E3E77C
:101B40000DB1B146D8E708362046314607F0DCFC37
:101B5000002895D1204601A9102205AB06F0A8FE69
:101B600000288DD1019A184B9A4212D0F86206468D
:101B70007A6ABB6AC2EB060CBCFBF3F63E622046F7
:101B8000594607F0C1FC00283FF47EAF0020F86200
:101B90007AE7029908360809FE623863E8E72046CA
:101BA000594607F0B1FC00287FF46EAF786A029ABC
:101BB000BB6AFE62361A1109B6FBF3F0396338626C
:101BC00062E700BF30306463696478313031776236
:101BD00070B582B0002851D000294FD006460023AE
:101BE00006F8013B751C437005F8013BAE4602EE5A
:101BF000102A0EF8013B0EF8013B0EF8013B0EF8DF
:101C0000013B0EF8013B8EF800308A698C681C4E4F
:101C10001C4901EE902A06EE104AB8EE421AF8EE80
:101C2000616AB8EE467A76EEC10A9FED170A27EE92
:101C3000207A164C87EE000A4FF4616CFCEEC07AF5
:101C400017EE905AA6FB0523DA0A114E0CFB125C24
:101C50005FFA82FEA4FB0E32A6FB0C635B0915093A
:101C6000C3EB031605EB4505AEEBC502ACEB8604F2
:101C7000E4B2D2B2DBB200940FF074FA02B070BDDD
:101C8000C5B3A2911CA4020800247449ABAAAAAA55
:101C9000898888882DE9F04F2DED068BADF53E6DD6
:101CA00085B00CF03FF94FF41630FEF76DFA05469B
:101CB000002800F0A3805449012006F06DFC0120AB
:101CC00007F0E8FB0FF014FD0DF5286018304F49C0
:101CD0003C2240F8041B0021FEF7CCFD0DF53C60D2
:101CE00000210D220C30FEF7C5FD1420012103F068
:101CF00045F80446002800F08580022300224AF6B9
:101D000044471026438002824760C68112F05CFA85
:101D1000204602F0DBFD00240121182003F02EF8FC
:101D200001213590142003F029F8359E2890002ECB
:101D300000F0CB8302224FF4FA514FF0080C4FF021
:101D4000000E42804160A0F80EC0A0F810E03060A4
:101D5000102002F001FA1590002800F0B4834FF42F
:101D6000A0764660503E8660EE3E05600673102009
:101D700002F0F2F90646002800F0A98302239F1E14
:101D800003730760302002F0E7F91E90002800F08E
:101D9000988315991E4A81600FCA1E9F4FF0000854
:101DA00007F1100987F80C80C7F8288089E80F0030
:101DB000C7F82480302002F0CFF91C90D0B1159BD9
:101DC000DFF854801C9F836098E80F001037179746
:101DD000DDF870C01C9FDFF844E0DDF85CB04FF028
:101DE000000A8CF80CA0C7F828E08BE80F00C7F8B1
:101DF00024A0ACB1074C10256583FEE7054B1020ED
:101E00005883FEE7012487E7F80E0020313A2F00BF
:101E1000AC4D010800080240BC4D01084F4F2F0097
:101E200008F0B4FE1E98DFF878A2DFF878B208F068
:101E30006FFD64200AF0E0FE204622462A948B4C77
:101E40000121402727830B46074602F0FFF80DF5D6
:101E50003A6202F11C0903A8CDF84C90B1462E4617
:101E60003D4607460DF52C600DF5286118301831F8
:101E700007F036FC002800F01981012100200246FD
:101E80000B4602F0E3F80BF06FF880461E98784C92
:101E900008F03EFDDFF810C2DDF85CE09CE80F00C2
:101EA000DDF870C0CCF828408EE80F00604608F0DE
:101EB0002FFD7048DDF85CC00FC88CE80F001C993E
:101EC0006D4B08468B6208F023FD02200DF0F0FCFC
:101ED0000028FAD0694ADDF84CE00FCA4FF4A0742C
:101EE0008EE80F000194664C00960294654C87E8DA
:101EF0000F004E206121644A644B0CF003FD0094F6
:101F0000159C0194624C4FF0FF1C5A207D213E220B
:101F10001423CDF808C0CDF82CC008F06FFBDDF815
:101F20002CC00094159CCDF808C0AA207D213E222B
:101F30001423019408F062FBDDF82CC0002D00F0A2
:101F400092805820534CCDF808C00094159C7B21FA
:101F500042221823019408F051FB0020F02301468F
:101F60004FF4A07200960CF0C3FDB8F1010F77D0CA
:101F7000B8F1020F71D0B8F1100F36D00024464AE4
:101F80001368187F50B3B3F91220782A26DD952AFA
:101F900024DC198A51391FFA81FCBCF1440F14D892
:101FA00014234FF0FF1E5A207D213E22CDF804E07D
:101FB000CDF800A00CF0FCFD4FF4FA700AF01CFE06
:101FC000364B4FF40058A3F81880DFF8CCC0DCF88B
:101FD00000100A8AA13A90B24E281BD964200AF058
:101FE0000BFE002C7FF43EAF47E735B37D21142371
:101FF0004FF0FF145A203E220194CDF800A00CF0BF
:10200000D7FD264B4FF400580121A3F81880002477
:102010002A91B4E77D213E221423AA204FF0FF1419
:10202000CDF800B001940CF0C3FD4FF4FA700AF043
:10203000E3FD64200AF0E0FD14E7AA207D213E22A2
:1020400014234FF0FF140194CDF800B00CF0B0FD54
:102050003C200AF0D1FD012491E7002401258EE700
:1020600000252C468BE7A8206CE700BF0014024037
:102070009FAEC200DC4D010833548C00EC4D0108CA
:10208000DCDCDC000C6401082CA40208FC4D010817
:10209000BC6D01086C770108641F00200008024035
:1020A000CC8301087C8D0108CC4D010835464E4695
:1020B00081461E9808F02CFC142002F04DF83C4696
:1020C0004FF4A07A3DAF8046C0F80CA08560476011
:1020D0004FF4805002F040F8002801F0108102F027
:1020E000F5FB404602F0F2FBC8F80890C8F80490EF
:1020F000142002F025F91B901B9B4FF48050C3F86D
:102100000CA002F01DF93690002801F0F4801B9F0E
:10211000BE4BBF497B600DF520603B601830369A9E
:1021200000974FF4805309F029F88046002801F009
:1021300090804FF47A700AF05FFD302002F00CF8C6
:102140000746002801F08180159AB2498260022377
:1021500003731B9B06604FF4A07847F6FE52426261
:1021600020910868C3F80C80AB499D600CF038FCE6
:10217000C0EB080101EBD1790DF53A6C4FEA690B20
:102180000CF10C0A4FF00009012100200B46024619
:1021900001F05CFF209AA14813685FFA89F113935C
:1021A00008F09EFADFF87CC286469CE80F008AE8B9
:1021B0000F00CDF808E00095CDF8048084E80F000A
:1021C00064215846139A944B0CF09CFB0020014666
:1021D000F023424600950CF08BFC06200AF00CFD23
:1021E000012100200B46024601F030FF209A8B4867
:1021F000136809F102095FFA89F1139308F070FA84
:10220000DFF820C286469CE80F008AE80F00CDF870
:1022100008E00095CDF8048084E80F00642158465A
:10222000139A7D4B0CF06EFB00200146F0234246D2
:10223000009509F102090CF05BFC06200AF0DCFCB9
:10224000B9F5807FA0D14FF416700DF538680AF00B
:10225000D3FCA9F1020908F11C0A14940121002001
:1022600002460B4601F0F2FE1E9808F051FB149C4A
:1022700002200DF01DFB0028FAD0209A6748136851
:1022800014945FFA89F84146139308F029FA8446BA
:102290006348DDF850E00FC84FF4A0748AE80F00DF
:1022A00001940095CDF808C08EE80F0058466421CF
:1022B000139A594B0CF026FB87F82C803468002CBD
:1022C00000F00781384608F023FB149C02200DF033
:1022D000EFFA0028FAD000200146F0234FF4A07254
:1022E00014940095A9F102090CF002FC06200AF0F2
:1022F00083FC19F1020FB1D13846149C02F0E6FAC2
:10230000306802F0E3FA304602F0E0FA4FF47A70F7
:102310000AF072FC4FF4403001F01EFF16900028C6
:1023200000F0DE8000261020CDF8EC6B01F014FFE9
:1023300029904FF4163001F00FFF01462998299A91
:1023400001604FF4A073C6EB010A43600227503BC3
:10235000836017731020DAF1000C4CEB0A0B01F0CC
:10236000FBFE2490249B30201F7301F0F5FE159F87
:1023700023904FF0010A876080F80CA0242001F020
:10238000EBFE159B0660E02114274FF0110944F283
:102390005C380162032238318361C761C0F808905C
:1023A000C0F80C80016142611A90242001F0C8FF3E
:1023B0001890189A5F21D1617231116216602E3126
:1023C000159E51604020F639C2F80890C2F80C8082
:1023D00051611061966101F0BFFE1F90702001F005
:1023E000BBFE2E90282001F0B7FE3790384601F052
:1023F000B3FE1D90182001F0A3FFDFF82C80249B72
:10240000C8F800005146542010E000BF2C97010886
:10241000E919000800000020989E010800FFFF0055
:1024200098B2010888B20108FC050020239FDDF85E
:102430006890002B08BFD34602F0A0FC002F08BF15
:10244000D34614901F991898B9F1000F14BF5F4636
:102450005746002808BF574600293CD02E9E002E24
:1024600039D03799002936D01D9A002A33D0DFF8A9
:1024700048E2DEF8000070B3149BF3B1149E002113
:10248000012286F84C1086F84D1086F84E1086F81A
:102490004F2086F84A2086F84B1086F8501086F8B0
:1024A000481086F8511086F84910B1614FF4803019
:1024B00001F052FE706300B1B7B1764C1025658310
:1024C000FEE7012476E4012451E4012440E40124E0
:1024D00058E4149CFAE6149F002FEED00127CDE7B4
:1024E0006C4E10257583FEE76B49DFF8D081CDF87F
:1024F000E87B0FC9D8F800B030970DF538660C3678
:1025000086E80F00CBF81870169B2297169F03F5EC
:1025100000300C37169B3B970DF534620DF5346196
:102520000DF532660DF532670DF5306E0DF530683C
:102530000C370DF536690DF5366A39901C320C31C1
:102540001C360EF11C0C08F10C0B03F58030DFED8E
:10255000538A9FED53AA109709F11C090AF10C0A3E
:102560000D920E910F96CDF844C0CDF848B03A9038
:1025700027460DF52860183006F098FF0DF5286005
:102580000DF53C61012418300C31464A159B00942E
:102590000FF0CCFF002878D1149A2B90DFED429AEF
:1025A00082F851000DF52860183006F07FFF18B151
:1025B0001498012380F8513000229FED3C9A199223
:1025C0000DF52C600DF528611830183107F088F8EA
:1025D000002840F09886149890F85140002C50D173
:1025E000B7EE008A0DF52C600DF52E611830143110
:1025F00007F0A6F800283FD19DF8FD3A002B3BD00C
:102600002E2BEFD09DF8FCCA1CF0100FEAD10DF56F
:102610002E66143606F10904204625490FF024F9E8
:102620000028DFD02B9949B90DF53C600C302146CC
:10263000FEF778FC0028D5D101242B940DF52E62ED
:10264000143202F109013DA8012205F0BBFF002868
:1026500036D00DF52E63143303F1090102461548F7
:102660000EF076FD0DF52C600DF52E61183014314D
:1026700007F066F80028BFD0149991F85160002E39
:102680009ED0199A002A3FF474AF024F10257D8323
:10269000FEE700BF00080240A8B2010800007A442B
:1026A00017B7D138B8B20108000070430000A0434A
:1026B00044A4020848A40208FC050020641F00206E
:1026C0000DF53E633DA816994FF400320C3306F029
:1026D000EFF80028BDD11E9808F01AF902200DF07D
:1026E000E7F80028FAD00DF510604FF48072002151
:1026F00018300DF52E66FEF7BDF814360DF5106096
:1027000006F1090118300FF093F80DF5106018303C
:1027100083490CF065F9C0F5A07000EBD0784FEA62
:10272000680B00264FF4A074B846012100200B4628
:10273000024601F08BFCF1B27A4807F0D1FFDFF8D6
:1027400014C207469CE80F0089E80F000297009525
:10275000019488E80F000DF5106264211832584684
:102760006F4B0CF0CFF800200146F0232246009575
:102770000CF0BEF906200AF03FFA012100200B46BA
:102780000246023601F062FCF1B2664807F0A8FF8B
:10279000DFF8C0E107469EE80F0089E80F000095CA
:1027A0000194029788E80F000DF510626421183239
:1027B00058465B4B0CF0A6F800200146F023224659
:1027C000009502360CF094F906200AF015FAB6F5D9
:1027D000807FAAD14146D846CDF84C804FF0FE0B01
:1027E0008846012100200B46024601F02FFC5FFACB
:1027F0008BF14C4807F074FF4B4A06460FCA8AE833
:102800000F0002960095019488E80F000DF5106204
:102810001398434B642118320CF074F800200146E1
:102820002246F02300950CF063F906200AF0E4F943
:10283000012100200B460246ABF1020601F006FC26
:10284000F1B2384807F04CFFDFF8DCC007469CE8DF
:102850000F008AE80F0000950194029788E80F00A6
:102860000DF5106213982E4B642118320CF04AF8C3
:10287000002001462246F02300950CF039F906208D
:102880000AF0BAF9ABF1040B002EAAD1C8200AF065
:10289000B3F9DDF858B0254CDBF800100023A14255
:1028A0004746CDF8E83B02D021480EF051FC16997E
:1028B0004A68409902F10800884208D1169C1D4AD6
:1028C000A668964207D01C480EF042FC8AE61B48D8
:1028D0000EF03EFC86E64FF0000C3B9CCDF8BCC0F1
:1028E0004FF0010BAE462368154DAB4200F0DE8180
:1028F00032D81448834200F0D98100F2E0811249B5
:102900008B4200F0D381114EB34206D07546217838
:102910000F4822460EF01CFC64E60434E3E700BFD7
:10292000989E010800FFFF0088D9010852494646D9
:1029300070A4020841564920CCA4020894A40208BD
:10294000646D6C68495346544A554E4B494E464F48
:1029500028A5020878D90108B5488342DDD000F2E5
:10296000C181B4498B4200F0E581B34EB342754654
:10297000CDD11F9A936AB3F5A07FD8463FF632AE09
:10298000DDF87CE0DEF82C20F02A3FF62BAE002BA1
:102990003FF428AE002A3FF425AE02FB03F35800B3
:1029A00001F0DAFBDDF86CC00146CCF80800002825
:1029B00000F0A8871F9A149E926A0020B2F5A07FAB
:1029C00086ED038AB06000F0EB83DDF87CE0DEF892
:1029D0002C309A42C0F0CC8300EE902AF8EE607A58
:1029E00006EE903AC9EE277A149E9448B8EE660A2D
:1029F000C6ED037A27EE800A149EBDEEC07A17EE6C
:102A000010CA00FB0CFE0EF59630B060DDF890E0C9
:102A1000DDF86CC0239ECCF80C20CEF80420CEF854
:102A20000830239BCEF800100022C3F800E03DA838
:102A300014997262FFF716F8DDF850C0DCF82C30FC
:102A4000002B3FF4CFADBBF1000F13D1DDF874E0E4
:102A5000DEF8040049F64041A0F5FA5B8B4507D843
:102A6000BEF80E30082B00F0BF86102B00F0BC869D
:102A70004FF0010BD846724E724B734ADDF850E0AE
:102A80001268012131704E1E6E491868169BD1F8EC
:102A900000B0149933900434E01AB2F800C04862D0
:102AA00003232F980B644FF44873B0FBF3F1C2F883
:102AB00018B03891CEF81860CEF81060CEF81460D7
:102AC000CEF81C608EF852608EF85160BB4634968A
:102AD0002F462C96C2F804C0966032962696199618
:102AE000259609967546012100200B46024601F005
:102AF000ADFA55490B689E68B3F800C00CEB0601AF
:102B0000269E9960642E00F00187721C26920AF0BE
:102B10002BFA199B1390002B40F06D824A4A1268E1
:102B2000137DABB1474E91693068C1EB000EBEF525
:102B3000C87F0DD9032B00F03F83042B00F03883AE
:102B4000022B00F0EC86DFF8FCC0DCF8000090619E
:102B50003D4A1268167F002E00F0A081B2F91000E5
:102B60000028C0F29B8195F84B30002B40F08D81FE
:102B7000022800F3F2831A9BD969DDF868E0DEF8D9
:102B8000103001EB030C604504D9B2F91260D12E6C
:102B900000F3AB86189BD3F81CE0704521DB1E695F
:102BA0000EEB060C604521961BD2D3F820C0B2F97B
:102BB0001220624515DB5E690CEB06039A4210D2C7
:102BC000CEEB00000102219EC0EB010EBEFBF6F32E
:102BD0002098DA4302710179022011F07DF91A99E7
:102BE000C969194A1368B3F810C00FFA8CF28A4207
:102BF000C0F208811A98D0F810E001EB0E06B2423C
:102C000080F00081B3F912601A982196066A219823
:102C1000B042C0F2F780A86A6C68531A00FB03FC4C
:102C2000BCFBFEF3012C6B6100F079835A000DE0D0
:102C30006F646D6C737472686D6F7669C0FEFFFFB0
:102C400040050020A8050020641F002005EE903AF2
:102C50009DED2F5AF8EE654AB8EE454A286A6E6A2D
:102C60002A6124EE844A00FB03FC84EE284A2CF4FB
:102C7000FE715A4B21F0030E0EEB06011C68574EF5
:102C8000339400223DA833680992169CFCEEC43AA6
:102C9000C5ED073A06F038FC0DF53E633DA81699E0
:102CA0004FF400320C3305F003FE1CE76068251D6D
:102CB00010F0010F18BF0130061DAC1913E6484A89
:102CC000934273D0474DAB427FF420AE6668231D1C
:102CD00016F0010F18BF01361D1DBCF1010F67D999
:102CE00075467FE4404A93423FF417AE3F4DAB42F6
:102CF000DCD03F4883427FF409AE251DDDF87C809F
:102D00002E46443430687168B268F3681036A642C3
:102D1000A8E80F00F6D11F9814998369026A4468E5
:102D200086688B624A601A992F96013B08344B6083
:102D30002C19D8E561682E9E043411F0010F18BFDC
:102D40000131382505FB0CF006EB0008251D343455
:102D50002B46424613941E685C6825949C68269412
:102D6000DC681660259E5660269ED4609660139C93
:102D700010331032A342EED11E685B6816605360B8
:102D80002E9A13581B48834200F0AA811A4A934294
:102D900000F01685194875460EF0DAF9D8F80010DB
:102DA000D8F8042016480EF0D3F91BE408349AE54D
:102DB000BCF1000F00F0BD8228681D9C6968AA68FC
:102DC000EB680FC4D5F810804FF0000BC4F80080FA
:102DD0000CF1010C5FFA8CFCAC1984E5A80500200D
:102DE0004C495354737472667374726C767072705B
:102DF0006864726C7669647361756473E0A4020838
:102E0000F8A40208ACF5827606F1FF3E1FFA8EF2B6
:102E10000E2A1AD8B3F91220D02A16DDDF2A14DCC4
:102E2000DFF8D8C29869DCF80020111AB1F5C87F24
:102E30000BD995F84FE08EF0010685F84F60002E13
:102E400000F07382AC4902204883198AC9391FFAFD
:102E500081FCBCF1260F18D8B3F91220D02A14DD5A
:102E6000DF2A12DCA54A98691668331AB3F5C87FC1
:102E70000BD995F84EE08EF0010185F84E1000292F
:102E800000F04F829E4B02201883DFF87CE2DFF8CF
:102E90006CC2DEF80020DCF8001091612B6C1398F6
:102EA000013301282B6400F025851398022800F0D7
:102EB0005A871399042900F04887DDF84CE0BEF1E9
:102EC000080F00F059871399102900F00C87167F1E
:102ED0004EB3B2F91010642925DDDB2923DCB2F9E9
:102EE0001220502A1FDD9F2A1DDC0A2B1BD995F8C2
:102EF00050204FF0000E82F0010385F85030C5F8E5
:102F000040E083B1DFF8F4C17E4EDCF80000CDF87C
:102F1000C0E0202268646821902013460096CDF816
:102F200004E00BF045FE2197CDF89CB02746DDF874
:102F300024B0309C359E95F85020002A51D01CB901
:102F40000AF012F8042833D0C82009F055FE0AF020
:102F50000BF8102812D0DFF8B0E1DEF80030187F4F
:102F60000028E8D0B3F91020642AE4DDDB2AE2DC93
:102F7000B3F91230502BDEDD9F2BDCDCDFF87CE177
:102F8000E869DEF800306A6C95F84E40C3EB000C3F
:102F90000CEB0201002385F850302B64E961F4B991
:102FA000B8F1000FC7D1564902244C834446C2E70A
:102FB00095F84E40002C00F0A686514C0222642069
:102FC000228309F019FEB8F1000F00F09786642003
:102FD00009F012FE159810F0BFFE0124B7E71C4659
:102FE000A9E7199ECDF824B03094DDF89CB03C469A
:102FF000219F002E4FD0444BDFF800C11B68DCF846
:1030000000209969501AB0F5C87F44D9DDF84CE02A
:10301000BEF1010F00F08886139A022A00F0A28008
:10302000DDF84CE0BEF1100F7ED0374B1B68187FE7
:10303000002830D031489E6901688A1BB2F5C87FEC
:1030400029D9B3F91220782A25DD952A23DC1B8A99
:10305000A3F1510E1FFA8EFCBCF1440F40F2C08068
:10306000A13B9BB24E2B16D8284E3E224FF0FF1CA0
:10307000AA207D2114230096CDF804C00BF098FD02
:103080001E4B2148196806683C20B16109F0B4FD67
:1030900000222A64199226681D4A964200F017847D
:1030A0001C498E4200F00E841B48864200F092813B
:1030B0001A4B9E4200F08E812E692A6B964280F058
:1030C0007281169E0E4BC6EB040C02200121BCF54A
:1030D000803F188385F8521000F27883023402E5AD
:1030E000D8F804300E4CA34203D00E4883427FF43C
:1030F00051AE6C18FFF7F7BB00040240A805002092
:103100000000024098D90108641F0020D412020870
:103110004A554E4B696478313031776230306463A0
:103120004D4A50476A706567259B002B58D1A04EC9
:10313000CDF82CC04FF0FF1EAA207D213E22142383
:103140000096CDF804E09B4E0BF032FDDDF82CC06C
:103150003168DCF800203C208A6109F04DFD25989B
:10316000199062E7DCF800100126259699615CE76A
:1031700003EE103AB8EE432A02EE902A89EE822A34
:103180001498149EF8EE621A80ED032A62EE211A5A
:10319000BDEEE11A11EE10EACEF5A070B06035E494
:1031A000DDF87CC0DCF82C30F02B7FF412AC2DE481
:1031B000012185F85110C6E495F848104B1CDBB28C
:1031C000012B85F8483040F2B685DDF864E085F8DB
:1031D00048E00126701E85F84A6085F84B00B2E48D
:1031E000754E4FF0FF14009601945A207D213E2227
:1031F0001423002601243D4619965F460BF0D8FCA7
:103200002A943DA806F03EF9DDF86CB0DBF8080022
:1032100001F05CFBB8F1000F0BD1DDF8DC0B01F025
:1032200055FBDDF8E00B01F051FBDDF8E40B01F09C
:103230004DFB2A9C0CB10BF0A1F9149B93F85100A3
:1032400000283FF4CFA9FFF71CBA5C482090FFF795
:1032500057B8DDF8340ADDF8382AF86002FB00F1CF
:10326000480000F079FFDDF8343ADDF8382AB8601C
:1032700002FB03F073604000B26000F06DFFB968BC
:10328000306000293EF455AF0DF5206042461830FD
:103290004B4908F03BFB804690B9B968159FDDF8B3
:1032A000342ADDF8383A00917F203221019707F067
:1032B000D9F8404641465246F02300950BF018FCE1
:1032C0004FF4FA7009F098FC306860B1DDF8382AE4
:1032D000DDF8347ADDF86CA002FB07F3DAF80810A9
:1032E0005A00FDF71FFADDF86CB0DBF8080001F0BA
:1032F000EDFAFEF71EBF334810224283FEE7314D40
:1033000010266E83FEE7149E96F85130002B7FF452
:10331000B8A9199900293FF445A9FFF7B6B91A468B
:1033200094E4294A02265683AFE5284A02261683EA
:103330008BE52433DDF8DC8013932C46206861682C
:10334000A268E368A8E80F00139910348C42F5D105
:1033500020686168A8E803003AE51A99C9698842BB
:10336000BFF60BACB2F912E0BEF1D10F7FF705AC9E
:10337000174A174C16686B612B61EB61696A22680A
:1033800009933DA8339606F0BFF80DF53E633DA8BE
:1033900016994FF400320C3305F08AFA0998169CFE
:1033A0002C90FFF7A0BB00233D4619935F4628E70A
:1033B000D4120208641F0020240902080000002023
:1033C0009519000800080240000002400004024075
:1033D000A805002095F8521011B1002085F8520080
:1033E00095F85130002B40F07B826168221D88B235
:1033F00011F0010F219000F0E08101303190111D9A
:10340000AB4A2791964202D11E9807F081FA09989B
:10341000002855D1279B1699C1EB030EBEF5803FBE
:1034200041D809982D90DDF8E81B002904DADDF871
:10343000E83B584209F0E0FB9E48864200F0878056
:103440009B4CA64272D06B6900EE903ADDED2F6A7C
:10345000F8EE607AB8EE660A9748EA690168339B2D
:1034600027EE800A8E1880EE280ABCEEC07A17EE8E
:10347000104A301BC21ACDF8E82BDDF8E81B0029F2
:103480004CDDDDF8E83B389CA34294BF00230123C8
:1034900034932D99002932D1279ADDF8C4E002EB4C
:1034A0000E04FFF720BB0DF53E633DA84FF48032BC
:1034B0000C3305F0FDF980B9012209922D90B2E795
:1034C000279B16983199C0EB030C0CEB0103B3F565
:1034D000003F07D200222D92A5E701213D46199118
:1034E0005F468EE6A3F500331699399832931A4653
:1034F000FDF718F90021012209912D9293E70DF5AE
:103500003E633DA83A994FF480320C3305F0D0F970
:1035100038B91698329BC418FFF7E5BA00263496DE
:10352000B7E701223D4619925F466AE66B692A6950
:1035300034980133561C6B612E61002800F0C28064
:10354000DDF8B0C00CF1010ECDF8B0E07CE7B8F1C9
:10355000000F7FF478AF296995F84E604A1C2A6104
:10356000002E7FF470AF1D9BB3F802E0BEF1020F96
:1035700000F08E805148219E02681368DB8971003B
:10358000102B116148D0082B27D04C4B1868467D72
:10359000741C4475437D032B01D1DA1E4275484CDF
:1035A000217800293FF44FAF90F814E090F815C04F
:1035B000E6453FF448AF10F09FFD404B1B681E7D71
:1035C000701C18751A7D032A01D1033A1A75DFF8A9
:1035D000F0E000218EF8001035E7099E08344346DC
:1035E00036490A681069834250D292F815C094F89F
:1035F00000E0324802EB8C02516801F803E00268F7
:1036000092F815C014F801EB02EB8C014868C2185F
:10361000023382F801E0E3E7099E08344346DFF80D
:103620009CC0DCF8002011698B422FD2507D94F8A9
:1036300000C002EB800EDEF8041001F803C0DFF8D2
:103640007CC0DCF80020507D94F801E002EB8001A2
:103650004A68D01880F801E0DCF80020517D94F829
:1036600000E002EB81004168CA1882F802E0DCF851
:103670000010487D94F801C001EB800202345168CB
:1036800001EB030E04338EF803C0C8E709967CE70C
:10369000DFF828E02198DEF80060279996F815C039
:1036A000306106EB8C04219A6068FDF73BF86CE70B
:1036B0003030646330317762A8050020FC050020BB
:1036C000400500201B982799369AFEF79FF900289D
:1036D0007FF4B9AED5ED037A77EEC8AAB0EEEA6A08
:1036E000B4EECA6AF1EE10FA09DD2499299817EEB2
:1036F000902A002306F0D4FD2999239C2160AE680E
:103700002398466207F004F9099E02200CF0D0F8D5
:103710000028FAD095F84A00099600283BD10DF50B
:10372000106085496A6918300DF01CFD834A0D9CB4
:10373000DFF820E20FCA4FF4A07684E80F00CDF83E
:1037400008E0009701968BE80F000A200DF5106243
:103750007B4B014618320BF0D5F80DF51060764919
:103760002C9A18300DF0FEFCDFF8ECC19CE80F003D
:10377000DDF838C04FF47F048CE80F000097019605
:1037800002948BE80F000DF510620A2019211832FF
:103790006B4B0BF0B7F895F84B30002B00F03C81E9
:1037A0001999002940F0DC80002001464FF4A072F6
:1037B000F02300970BF09CF945E6219B31931EE620
:1037C000D8F80430012B3FF6E5AA92E40DF53E63EC
:1037D0004FF400323DA816990C3305F069F8002229
:1037E000169C0992FFF77FB91D994B885E1EB2B2F5
:1037F000012A3FF63DA90DF53C6E0EF1180BBC46B3
:1038000000262F46022225465C461D98DDF8B8E0CA
:103810004188DEF85C000C9292FBF1F300FB03F0B0
:10382000CDF82CC000F098FC0C9A44F8040FDDF899
:103830002CC000282BD00136032EE6D11D982C4633
:103840003D46674610F0C0FC149B93F84E000028DC
:1038500030D03C4E02223283149A92F84F0018B3B3
:10386000394902264E83DFF8F4B0DBF8001000205F
:1038700008754875DDF8DC6BDDF8E02B1D9BDDF885
:10388000E40B0B604E608A60C860FFF7F4B82C460A
:1038900080463D466746B04510DA5BF8040F01F0FC
:1038A00015F808F10108F6E7274B4FF0020CA3F8D2
:1038B00018C0D8E7234B02215983CDE74FF0010808
:1038C000FFF7D9B800203D4619905F4699E404F10E
:1038D000964404F59C0E0EF5AA444E34FFF703B946
:1038E00000263D4619965F468BE400243D46199418
:1038F0005F4686E415490E6800243D4619945F46EC
:1039000096617EE4124910274F83FEE7269E002031
:10391000B1FBF6F1596098602690FFF7F8B895F87A
:103920004FC08CF0010185F84F10002900F0C881CC
:1039300005484383FFF707B954A50208841C020811
:10394000FC4D01080000024000040240A8050020D0
:103950000008024000FFFF00941C0208FC05002044
:10396000AF481C9EDDF85CE0AE4C0FC8B4628EE838
:103970000F00304606F0CCFFDFF8F0C2179C9CE841
:103980000F0084E80F00A84A1C98B26206F0C0FF3E
:10399000099E02200BF08CFF0028FAD00996A34E56
:1039A000DDF848C096E80F004FF4A0748CE80F00D3
:1039B00001949F4C0097029410368BE80F008E20E4
:1039C00061219C4A9C4B0AF09DFF0096159E019632
:1039D0009A4E4FF0FF145A207D213E221423029468
:1039E00006F00CFE0096159E02941423AA207D2159
:1039F0003E22019606F002FE259B002B00F06A8114
:103A000058208F4E02940096159E7B214222182347
:103A1000019606F0F3FDC7E604218A480CF072FC1B
:103A20000821064687480CF06DFC06EB4001002992
:103A300040F0C880844B1A685468A4F53460143888
:103A4000B0F57A7F40F2BE8080492291229B159C7E
:103A50000093002640F21B10D12111220B23019468
:103A6000029606F0CBFDDFF808C20296ACF5907422
:103A7000B04508BF64460094159CF120D2210D2268
:103A80000B23019406F0BAFDDFF8E4C195F84F006E
:103A900001940CF5107E0CF59074B04208BF74468A
:103AA0000B23D1210D2240F205100094029606F05E
:103AB000A5FD6A691A98026006F04AFEDDF880C02A
:103AC00018989CF804E04668CEEB0601016006F009
:103AD0003FFE189C5E4923686668642202FB03F07F
:103AE000B0FBF6F20DF5106018300DF03BFB5949B4
:103AF0000F9CDFF87CE10FC94FF0FF0C84E80F004A
:103B00004FF4A07400970194CDF808C08BE80F0023
:103B10000DF510620EF56C73A820CE2118320AF054
:103B2000F1FE95F84E30B3B1DFF848C1109EDFF8D2
:103B300040E19CE80F0086E80F004FF40B06009769
:103B4000019402968BE80F00CA20CF21424A0EF55D
:103B50006C730AF0D7FE0DF5106018301F996A6972
:103B60003E4EFEF735F8DFF810E1119C9EE80F009D
:103B700084E80F004FF4A0740194413C0294009734
:103B80008BE80F000DF510621420CE2118322A4B5D
:103B90000AF0B8FE0096159E0196314EFF3C0620B5
:103BA000D22108221023029406F028FD0096159ECB
:103BB00002944FF49970D22108221023019606F046
:103BC0001DFDEDE5204C2068466840F6584C6645E2
:103BD0000CD904211B480CF095FB08210646194816
:103BE0000CF090FB06EB4002022A0FD0042115488E
:103BF0000CF088FB0821064612480CF083FB06EB0C
:103C00004004012C3AD1174A22921FE71648017846
:103C10000DF53F6C0CEB810E5EF8643C229315E7CA
:103C20002C260208908070004F4F2F004C2602086F
:103C3000DCDCDC0068A50208FC4D01080C30020841
:103C40006C77010800180240641F0020A41C0208C1
:103C500058A50208FC23020860A502082C240208CB
:103C60002C2502081C1E0208F80500203C2602082C
:103C70004C4A01080C2402081C24020804214C4868
:103C80000CF040FB0821044649480CF03BFB04EBD8
:103C90004003002B7FF4DAAE464801684B6840F6DB
:103CA000574E734510D8444C444E2378A6F5BC7249
:103CB00003F0010CBCF1000F18BF16462296C5E6B2
:103CC0003F4E3383FEF73FBFB3F5486F04D23D4903
:103CD0002291BBE6A82094E640F6B14E73455DD82C
:103CE00039482290B2E6394996690868C6EB000C5B
:103CF000BCF5C87F3FF6F9A8FFF7E9B81D9810F0AA
:103D000063FAFFF764B9289810F05EFA304B42F27C
:103D10008C7130467360316110F0EEF94FF47A70B7
:103D200008F06AFFFFF749B9DCF800600020259031
:103D30009E61FFF77AB9002B3FF44BAA012385F867
:103D40004A3085F84B30FEF7FEBE2098214B0279B1
:103D500012B119794E1E1E71209B0220197910F0A4
:103D6000BBF8FFF7E0B8DFF864C0DCF800300126EC
:103D700019969361FFF7D7B8DDF880E0154B9EF8F0
:103D800004C0BCF1FF0F02D01879421C1A71209EAA
:103D90000220317910F0A0F8FFF7C5B80E4A0F4E97
:103DA00040F6155C634598BF164622964EE600BF66
:103DB00000180240641F0020F8050020B4470108E5
:103DC00000040240941F02080C210208A8050020EC
:103DD00098E1010800000020842202081C1E02084D
:103DE000014B1878704700BF08000020234808B531
:103DF0000378032B18D8DFE803F0393102190120CA
:103E00004FF480710AF020FE60204FF427410AF041
:103E10001BFE41F2300103200AF016FE1849F02380
:103E20004FF4A0720B804A80154808BD01204FF462
:103E300080710AF009FE60204FF41C510AF004FE64
:103E4000032041F238010AF0FFFD0D49F0204FF444
:103E5000A07CA1F800C04880094808BD01200021CD
:103E60000AF0F2FD60204FF42741E7E7012000212E
:103E70000AF0EAFD60204FF41C51C8E7080000205A
:103E80000006002070B5404C08250A2008F0B4FE5A
:103E90000520658308F0B0FE3220258308F0ACFED3
:103EA000102000210AF0D0FD112007210AF0CCFDDE
:103EB000122000210AF0C8FD002113200AF0C4FDE1
:103EC000012008F099FE102041F290610AF0BCFD3B
:103ED00040F2212111200AF0B7FD322008F08CFEBB
:103EE0004FF4847112200AF0AFFD012008F084FE27
:103EF00013204FF4C0510AF0A7FD292004210AF035
:103F0000A3FD0D212B200AF09FFD502008F074FE28
:103F1000302004210AF098FD312007210AF094FD99
:103F2000322006210AF090FD352040F206210AF0E9
:103F30008BFD36204FF481610AF086FD372040F278
:103F400007510AF081FD38204FF400710AF07CFD22
:103F5000392040F207710AF077FD3C2040F204510D
:103F60000AF072FD40F602713D200AF06DFDFFF788
:103F70003DFF612001210AF067FD072040F2331167
:103F8000BDE870400AF060BD000C02402DE9F04130
:103F90002D4C26780D4604461746984656B3022EF9
:103FA00028D08DB2502029460AF04EFD6A1E90445A
:103FB000A4B251201FFA88F10AF046FD5220214692
:103FC0000AF042FD611ECF195320B9B20AF03CFD40
:103FD000202029460AF038FD212021460AF034FD30
:103FE0004FF0C04C002322208CF800308CF80000E9
:103FF000BDE8F081A4B2214650200AF025FD601EE4
:10400000C719ADB2B9B251200AF01EFD294652209F
:104010000AF01AFD6B1E98441FFA88F153200AF02B
:1040200013FD214620200AF00FFD212029460AF029
:104030000BFD4FF0C04C002322208CF800308CF890
:104040000000BDE8F08100BF080000202DE9F0412C
:104050000D4616461F46044610F080FAC288384BBB
:1040600011B20029B8BF4942642993F800C002DCAC
:104070003448BDE8F08102F56072D11C8AB240F28A
:10408000067E7245F4D8BCF1000F18D1B0F90220B9
:10409000B0F9041082EAE278A8EBE27881EAE170F4
:1040A000A0EBE170804526DDFDB1002A1DDD012277
:1040B0006245DDD01A70BDE8F041FFF797BEBCF154
:1040C000020FE3D0B0F90420B0F9021082EAE278DE
:1040D000A8EBE27881EAE17EAEEBE17EF04519DD06
:1040E0002EB3002A23DD0222E4E7002FC0D0002AED
:1040F000BEDC0322DCE726B1BCF1000F01D10029B0
:10410000F1DC002CB4D0BCF1020FB1D10029AFDC3E
:104110000022CFE717B1BCF1010F0DD0002DA7D0C1
:10412000BCF1030FA4D10029A2DD0122C2E7002CBB
:104130009ED0002A9CDCEBE70029EFDC0322B9E7E4
:104140000800002000060020024800214FF43E52E3
:10415000FCF790BB000000102DE9F00310B9BDE89A
:10416000F00370470026754D3146324630E001318C
:10417000B0EB812F37D9AF1807F51E546F4B277856
:10418000541C002F40F0CD800131B0EB812F2AD993
:104190002B1903F51E5C941C9CF80070674B002FD4
:1041A00040F0C2800131B0EB812F1CD905EB040C2B
:1041B0000CF51E54614B24780332002C40F0B7807C
:1041C0000131B0EB812F0ED9B2F5006F00F0B28053
:1041D000AB1803F51E5401322478584B002CC6D07E
:1041E00016460021C7E7002900F0938006F51E5708
:1041F000DA19504200F00300884228BF0846002820
:1042000000F09A8006F51C547F3401221B1900F13E
:10421000FF3C904203F8012F0CF0030C14461BD90D
:10422000BCF1000F10D0BCF1010F08D0BCF1020F9F
:104230001CBF03F8012F022403F8012F01340134BD
:10424000A04203F8012F07D90434A0425A709A7093
:10425000DA7003F8042FF7D881425AD0C0EB010876
:104260004FEA980C4FEA8C09BCF1000F29D03B189B
:104270000CF1FF37EB1807F0030001274FF0013274
:10428000BC4543F8042B19D970B1012807D0022886
:104290001CBF43F8042B022743F8042B01370137D6
:1042A000BC4543F8042B09D91846043740F8042BC1
:1042B0005A604260DA601033BC45F5D8C8454C44BA
:1042C00027D0331903F51C527F32AB180122E0438B
:1042D000A41800EB010CA14203F8012F0CF003001D
:1042E00017D970B1012807D002281CBF03F8012F8D
:1042F000013403F8012F01340134A14203F8012FE6
:1043000007D90434A1425A709A70DA7003F8042F66
:10431000F7D806F5F07C06F5401045F82C10800221
:104320001DE72646002133E7264600213EE71646D4
:10433000002149E7002012E704468FE70000001043
:10434000B0F5404F2DE9F00343D90026904D31469A
:10435000324633E00131B0EB812F40F21D81AF18BE
:1043600007F51E548A4B2778541C002F40F0B28169
:104370000131B0EB812F40F20F8105EB040C0CF5FD
:104380001E54834B2778941C002F40F0A6810131E6
:10439000B0EB812F40F200812B1903F51E5403323C
:1043A00024787B4B002C40F09B810131B0EB812FB6
:1043B00040F2F280B2F5006F00F09581AB1803F582
:1043C0001E5401322478724B002CC3D016460021B3
:1043D000C5E7002800F0D38000256E4B2A46294609
:1043E0001BE00132B0EBC21F2CD95C784E1CFCB92B
:1043F0000132B0EBC21F25D99C788E1CF4B1354632
:104400000022DC7803310333002C00F0BB800D4622
:104410000022B1F5C07F00F068815C780131013382
:10442000002CDED05C780D4600224E1C002CDFD024
:104430009C78354600228E1C002CE0D10132B0EB76
:10444000C21FDED8002A00F03782514E05F5C06742
:10445000F319594201F00300904228BF104600288A
:1044600000F02C8205F5BE640F340121331900F1F0
:10447000FF3C884203F8011F0CF0030C0C461BD9CB
:10448000BCF1000F10D0BCF1010F08D0BCF1020F3D
:104490001CBF03F8011F022403F8011F013401347B
:1044A000A04203F8011F07D90434A0425970997043
:1044B000D97003F8041FF7D882425AD0C0EB020823
:1044C0004FEA980C4FEA8C09BCF1000F29D03F1835
:1044D000F31901274FF001310CF1FF30BC4543F8CF
:1044E000041B00F0030019D970B1012807D002287D
:1044F0001CBF43F8041B022743F8041B0137013794
:10450000BC4543F8041B09D91846043740F8041B7E
:1045100059604160D9601033BC45F5D8C8454C445A
:1045200027D02B1903F5BE610F3173180121E04329
:10453000641800EB020CA24203F8011F0CF0030008
:1045400017D970B1012807D002281CBF03F8011F3A
:10455000013403F8011F01340134A24203F8011FA2
:1045600007D90434A24259709970D97003F8041F16
:10457000F7D805F50010803046F82520C001BDE8C9
:10458000F00370470132B0EBC21F3FF642AF59E76C
:1045900000000010FF050010002900F0938006F5D0
:1045A0001E57DA19504200F00300884228BF08461F
:1045B000002800F0878106F51C547F3401221B1966
:1045C00000F1FF3C904203F8012F0CF0030C14465D
:1045D0001BD9BCF1000F10D0BCF1010F08D0BCF109
:1045E000020F1CBF03F8012F022403F8012F01342E
:1045F0000134A04203F8012F07D90434A0425A70B5
:104600009A70DA7003F8042FF7D888425AD0C0EBBA
:1046100001084FEA980C4FEA8C09BCF1000F29D031
:104620003B180CF1FF37EB1807F0030001274FF0A0
:104630000132BC4543F8042B19D970B1012807D0C9
:1046400002281CBF43F8042B022743F8042B013730
:104650000137BC4543F8042B09D91846043740F804
:10466000042B5A604260DA601033BC45F5D8C84567
:104670004C4427D0331903F51C527F32AB1801226A
:10468000E043A41800EB010CA14203F8012F0CF049
:10469000030017D970B1012807D002281CBF03F806
:1046A000012F013403F8012F01340134A14203F832
:1046B000012F07D90434A1425A709A70DA7003F8B6
:1046C000042FF7D806F5F07C06F5401045F82C10BD
:1046D000800254E7264600214FE6264600215BE68D
:1046E0001646002166E6002049E70024764D224662
:1046F00021462EE00132B0EB822F36D96E1806F536
:104700001E57714B3F784E1C002F40F0CC80013279
:10471000B0EB822F29D9AE1906F51E576A4B3F78A8
:104720008E1C002F40F0C5800132B0EB822F1CD9C7
:10473000AB1903F51E5C03319CF80060624B002E40
:1047400040F0B4800132B0EB822F0ED9B1F5006F8A
:10475000C9D005EB010C0CF51E565B4B36780131C8
:10476000002EC7D00C460022C8E7002A00F0938034
:1047700004F51E57D819414201F00306964228BF9E
:104780001646002E00F09C8004F51C517F315B180A
:10479000012106F1FF3C8E4203F8011F0CF0030CCF
:1047A00008461BD9BCF1000F10D0BCF1010F08D096
:1047B000BCF1020F1CBF03F8011F022003F8011F08
:1047C00001300130864203F8011F07D904308642C8
:1047D00059709970D97003F8041FF7D8B2425AD0B3
:1047E000C6EB02084FEA980C4FEA8C09BCF1000FA7
:1047F00029D0BB190CF1FF37EB1807F0030601278E
:104800004FF00131BC4543F8041B19D976B1012E94
:1048100007D0022E1CBF43F8041B022743F8041BD9
:1048200001370137BC4543F8041B09D91E4604373C
:1048300046F8041B59607160D9601033BC45F5D847
:10484000C845484427D004EB000C0CF51C517F31BF
:104850006B180121C6434018B618824203F8011FA5
:1048600006F0030617D976B1012E07D0022E1CBF21
:1048700003F8011F013003F8011F013001308242AB
:1048800003F8011F07D90430824259709970D9701A
:1048900003F8041FF7D804F5F07304F5401045F849
:1048A000232080026BE63446002234E70C460022C7
:1048B0004CE7344600223BE7034E5AE60446FDE54A
:1048C00030468DE70446A2E6000000102DE9F0070F
:1048D000002800F0A080B0F1404FC0F09F8000F1B0
:1048E0008040870AA04E07F5F07356F82350002D3C
:1048F00000F0918007F51E5A06EB0A014C4204F0C5
:1049000003040022AC4228BF2C4646F82320002C8A
:1049100000F0278107F51C53601E7F33F31800F069
:1049200003010120844203F8012F17D971B1012935
:1049300007D002291CBF03F8012F022003F8012F22
:1049400001300130844203F8012F07D9043084423A
:104950005A709A70DA7003F8042FF7D8A5425AD02B
:10496000C4EB05084FEA980C4FEA8C09BCF1000F24
:1049700029D00AEB04020CF1FF34B31804F0030150
:1049800001240022A44543F8042B19D971B101294F
:1049900007D002291CBF43F8042B022443F8042B40
:1049A00001340134A44543F8042B09D919460434D1
:1049B00041F8042B5A604A60DA601033A445F5D8F8
:1049C000C845484427D03A1802F51C537F33C143E9
:1049D000F3180130002201EB050C854203F8012F8A
:1049E0000CF0030117D971B1012907D002291CBFAE
:1049F00003F8012F013003F8012F01300130854207
:104A000003F8012F07D9043085425A709A70DA7082
:104A100003F8042FF7D8BDE8F007704700F170479E
:104A2000A7F58047B7F5404FF5D2FF094E4E56F82F
:104A30002750002DEFD007F5C06A06EB0A0460424C
:104A400000F003040022AC4228BF2C4646F8272081
:104A5000002C00F0848007F5BE630F33F3180120AB
:104A6000611E844203F8012F01F0030117D971B1CF
:104A7000012907D002291CBF03F8012F022003F8E7
:104A8000012F01300130844203F8012F07D904308F
:104A900084425A709A70DA7003F8042FF7D8A5424E
:104AA000B9D0C4EB05084FEA980C4FEA8C09BCF169
:104AB000000F29D00AEB04020CF1FF34B31804F004
:104AC000030101240022A44543F8042B19D971B134
:104AD000012907D002291CBF43F8042B022443F804
:104AE000042B01340134A44543F8042B09D9194699
:104AF000043441F8042B5A604A60DA601033A4454C
:104B0000F5D8C845484486D03A1802F5BE630F333D
:104B1000C143F3180130002201EB050C854203F874
:104B2000012F0CF003017FF676AF79B1012907D090
:104B300002291CBF03F8012F013003F8012F0130B7
:104B40000130854203F8012F7FF665AF04308542BE
:104B50005A709A70DA7003F8042FF7D85BE7204692
:104B60009FE72046FCE600BF0000001000FB01F2BA
:104B70002DE9F0471AB914462046BDE8F087002712
:104B80007D4E3846394630E00130B2EB802F38D9BF
:104B9000731803F51E554C1C2D78774B002D40F0F3
:104BA000DE800130B2EB802F2BD9341904F51E5C66
:104BB000714B9CF800508C1C002D40F0D3800130CC
:104BC000B2EB802F1DD9331903F51E5C03319CF81D
:104BD0000040694B002C40F0C8800130B2EB802FC0
:104BE0000FD9B1F5006F00F0C380731803F51E5C98
:104BF00001319CF80040604B002CC5D00F460020CE
:104C0000C6E7002800F09A8007F51E5C03EB0C0550
:104C1000694201F00304844228BF0446002C00F0DE
:104C2000A98007F51C517F315B18012104F1FF3881
:104C30008C4203F8011F08F003080D461BD9B8F198
:104C4000000F10D0B8F1010F08D0B8F1020F1CBF4F
:104C500003F8011F022503F8011F01350135AC429D
:104C600003F8011F07D90435AC4259709970D97007
:104C700003F8041FF7D8A04260D0C4EB00094FEA44
:104C800099084FEA880AB8F1000F2FD0A44406EB28
:104C90000C034FF0010C4FF0013108F1FF34E045F7
:104CA00043F8041B04F003041DD98CB1012C09D076
:104CB000022C1CBF43F8041B4FF0020C43F8041BEA
:104CC0000CF1010C0CF1010CE04543F8041B0AD96E
:104CD0001C460CF1040C44F8041B59606160D96057
:104CE0001033E045F4D8D145554427D0791901F562
:104CF0001C537F330121EC43F3186D1804EB000CB7
:104D0000A84203F8011F0CF0030417D974B1012C59
:104D100007D0022C1CBF03F8011F013503F8011F47
:104D200001350135A84203F8011F07D90435A8420F
:104D300059709970D97003F8041FF7D807F5F0740B
:104D400007F5401C46F824005FEA8C243FF414AFBA
:104D500020460021FBF78EFD2046BDE8F087274660
:104D6000002022E7274600202DE70F46002038E7E5
:104D7000002401E7254680E70000001000FB01F257
:104D8000B2F5404F2DE9F04744D90027984E3846F8
:104D9000394633E00130B2EB802F40F22D81731899
:104DA00003F51E554C1C2D78914B002D40F0C98108
:104DB0000130B2EB802F40F21F81341904F51E55EB
:104DC0008B4B2D788C1C002D40F0BE810130B2EB56
:104DD000802F40F21181331903F51E5C03319CF8DA
:104DE0000040834B002C40F0B2810130B2EB802FA9
:104DF00040F20281B1F5006F00F0AC81731803F549
:104E00001E5C01319CF80040794B002CC2D00F464B
:104E10000020C4E7002A00F0E1800026754B3146EF
:104E200030461BE00131B2EBC11F2CD95C78451C28
:104E3000FCB90131B2EBC11F25D99C78851CF4B1B6
:104E40002E460021DC7803300333002C00F0CA80AA
:104E500006460021B0F5C07F00F07E815C7801300D
:104E60000133002CDED05C7806460021451C002C66
:104E7000DFD09C782E460021851C002CE0D101312A
:104E8000B2EBC11FDED8002900F05582584F06F55D
:104E9000C06C07EB0C05684200F003048C4228BF8D
:104EA0000C46002C00F0498206F5BE630F3301204A
:104EB000FB1804F1FF38844203F8010F08F00308DF
:104EC00005461BD9B8F1000F10D0B8F1010F08D07A
:104ED000B8F1020F1CBF03F8010F022503F8010F00
:104EE00001350135AC4203F8010F07D90435AC4256
:104EF00058709870D87003F8040FF7D8A1425FD0AB
:104F0000C4EB01094FEA99084FEA880AB8F1000F8B
:104F10002ED0644408F1FF3C3B190CF003044FF021
:104F2000010C4FF00130E04543F8040B1DD98CB162
:104F3000012C09D0022C1CBF43F8040B4FF0020CCB
:104F400043F8040B0CF1010C0CF1010CE04543F8A3
:104F5000040B0AD91C460CF1040C44F8040B5860ED
:104F60006060D8601033E045F4D8D145554427D06F
:104F7000731903F5BE600F303B180120EC432D1868
:104F800004EB010CA94203F8010F0CF0030417D93C
:104F900074B1012C07D0022C1CBF03F8010F01359E
:104FA00003F8010F01350135A94203F8010F07D9B4
:104FB0000435A94258709870D87003F8040FF7D8D8
:104FC00006F50014803447F82610E4013CB1204671
:104FD0000021FBF74FFC2046BDE8F0871446204631
:104FE000BDE8F0870131B2EBC11F3FF633AF4AE7AE
:104FF00000000010FF050010002800F09A8007F55F
:105000001E5C03EB0C05694201F00304844228BFD7
:105010000446002C00F0958107F51C517F315B1888
:10502000012104F1FF38A14203F8011F08F0030831
:105030000D461BD2B8F1000F10D0B8F1010F08D007
:10504000B8F1020F1CBF03F8011F022503F8011F6E
:1050500001350135A54203F8011F07D20435A542E9
:1050600059709970D97003F8041FF7D3844260D047
:10507000C4EB00094FEA99084FEA880AB8F1000F1B
:105080002FD0A44406EB0C034FF0010C4FF001317C
:1050900008F1FF34E04543F8041B04F003041DD974
:1050A0008CB1012C09D0022C1CBF43F8041B4FF01B
:1050B000020C43F8041B0CF1010C0CF1010CE0454F
:1050C00043F8041B0AD91C460CF1040C44F8041BD9
:1050D00059606160D9601033E045F4D8D14555443A
:1050E00027D0791901F51C537F330121EC43F318C4
:1050F0006D1804EB000CA84203F8011F0CF0030428
:1051000017D974B1012C07D0022C1CBF03F8011F62
:10511000013503F8011F01350135A84203F8011FCD
:1051200007D90435A84259709970D97003F8041F43
:10513000F7D807F5F07C07F5401446F82C00A402D8
:1051400044E72746002038E62746002043E60F467E
:1051500000204FE6002442E700257B4E29462846E2
:105160002FE00131B2EB812F37D906EB000C0CF5A3
:105170001E57754B3F78441C002F40F0D3800131FF
:10518000B2EB812F29D9341904F51E576E4B3F78A5
:10519000841C002F40F0CC800131B2EB812F1CD950
:1051A000331903F51E5C03309CF80040664B002C5D
:1051B00040F0BB800131B2EB812F0ED9B0F5006F0A
:1051C000C8D0331803F51E5C01309CF800405E4BDC
:1051D000002CC6D005460021C7E7002900F09A80C0
:1051E00005F51E5C03EB0C00474207F003078F42F6
:1051F00028BF0F46002F00F0A28005F51C547F3415
:1052000001201B1907F1FF38874203F8010F08F04E
:10521000030804461BD9B8F1000F10D0B8F1010FF4
:1052200008D0B8F1020F1CBF03F8010F022403F8E5
:10523000010F01340134A74203F8010F07D90434E8
:10524000A74258709870D87003F8040FF7D8B94285
:1052500060D0C7EB01094FEA99084FEA880AB8F114
:10526000000F2FD00CEB070308F1FF3CF3180CF0F4
:1052700003074FF0010C4FF00130E04543F8040BF9
:105280001DD98FB1012F09D0022F1CBF43F8040B89
:105290004FF0020C43F8040B0CF1010C0CF1010C63
:1052A000E04543F8040B0AD91F460CF1040C47F8FB
:1052B000040B58607860D8601033E045F4D8D145CD
:1052C000544427D005EB040C0CF51C507F303318E8
:1052D0000120E74324187F18A14203F8010F07F0CB
:1052E000030717D977B1012F07D0022F1CBF03F88E
:1052F000010F013403F8010F01340134A14203F816
:10530000010F07D90434A14258709870D87003F87F
:10531000040FF7D805F5F07305F5401446F823108F
:10532000A40253E6254600212DE70546002145E766
:105330002546002134E7044F42E62546E0E53C4699
:1053400087E7254694E600BF0000001038B5454BBE
:105350005D6B15F0450F044603D15D6B15F0450FED
:10536000FBD015F0040F08D115F001050AD10AF0A1
:10537000F5F8A0420BD0102038BD04200AF03EF909
:10538000032038BD01200AF039F9012038BD40F270
:10539000FF500AF033F928460AF0E6F8324B00EAEB
:1053A0000303002B39D000283DDB10F0804F36D1AD
:1053B00010F0005F35D110F0805F36D110F0006F33
:1053C00035D110F0806F34D110F0807F33D110F4DC
:1053D000000F32D110F4800FCDD110F4001F2ED168
:1053E00010F4801F2FD110F4002F30D110F4802F33
:1053F0002BD110F4003F32D110F4803F2DD110F4A6
:10540000004F28D110F4804F23D110F4005F18D141
:1054100010F0080018BF1A2038BD184638BD092002
:1054200038BD0A2038BD1C2038BD0B2038BD0C20EB
:1054300038BD0D2038BD0E2038BD0F2038BD1120DD
:1054400038BD192038BD122038BD142038BD1320B6
:1054500038BD182038BD172038BD162038BD15209E
:1054600038BD00BF002C014008E0FFFD2DE9F04FE2
:10547000064683B000200AF077F810F0007303D0DE
:105480000E2003B0BDE8F08F704C009310254FF054
:1054900008094FF040084FF480672046C4F8009098
:1054A0006560C4F80880E36027610AF03DF828468B
:1054B000FFF74CFF0028E4D1DFF89CA1E060DAF8A8
:1054C0000020C4F8088012FA05F33725204623602F
:1054D000656027610AF028F82846FFF737FF054680
:1054E0000028CED15A4B6FF07F4230211A6099606C
:1054F0000222012118464FF0330BC3F80490DA6002
:105500001D6159610AF03CF820462560C4F804B0DA
:10551000C4F80880E56027610AF006F85846FFF7EE
:1055200015FF0028ADD14B4DADF104076B6B40F278
:105530002A6C03EA0C0050B94FF400100AF054F83A
:105540000028F3D00AF036F847F8040FEEE70820F9
:105550000AF04AF820B108200AF050F8042090E739
:1055600002200AF041F820B102200AF047F8022098
:1055700087E720200AF038F820B120200AF03EF812
:1055800006207EE74FF400700AF02EF8074628B197
:105590004FF400700AF032F8072072E740F2FF5033
:1055A0000AF02CF80099012E0BBA2DD013F4803F8D
:1055B00001D1252065E7DAF80000244DE7600304F7
:1055C00037264FF040084FF4806723602846666016
:1055D000C4F80880276109F0A7FF3046FFF7B6FE40
:1055E000034600287FF44DAF062428462B606C60EC
:1055F000C5F80880EB602F6109F096FF204603B0E4
:10560000BDE8F04FFFF7A2BE13F4802FD1D0DAF837
:1056100000600E4DE76032044FF0400837264FF42B
:105620008067284622606660C4F80880276109F018
:105630007BFF3046FFF78AFE034600287FF421AF48
:105640000221062428462960D1E700BF0806002071
:1056500090060020002C01404805002010B582B0C3
:1056600001208DF804009DF80430012B02D00220A7
:1056700002B010BD0F4C10492068402203040D24D5
:105680000B608A6000234FF4806208464C60CB6058
:105690000A6109F049FF2046FFF758FE0028E6D1CD
:1056A00009F062FFC0F3432CBCF1040018BF0120D5
:1056B000DEE700BF48050020080600202DE9F04F76
:1056C0008D498E4D002483B0762208460C604C60D4
:1056D0008C60CC600C610A758DF8044009F0F0FE16
:1056E000032009F013FF012009F00AFF4FF4806343
:1056F00028462C606C60AC60EC602B614FF4803409
:1057000009F012FF0EE0802009F06EFF78B98020CA
:1057100009F06AFF58B9802009F066FF38B9043CE7
:1057200000F0D780802009F05FFF0028EBD040F226
:10573000FF5009F063FF00238DF804309DF804301A
:1057400023B19DF8040003B0BDE8F08F08214FF4A9
:10575000D5724024EB60694869604FF480632B6127
:105760002A60AC6009F0E0FE65494B6B13F0450F11
:1057700019D14FF480320FE04B6B013A13F0450F13
:1057800010D14B6B821E13F0450F0BD14B6BC21E19
:1057900013F0450F06D14AB14B6B013A13F0450F98
:1057A0001046E9D012B113F004046ED0042009F0C1
:1057B00025FF03248DF804409DF8040000286ED1D5
:1057C000504BDFF844B101245C60002340224FF4C9
:1057D0008061372449482B60EB60AA6029616C60C6
:1057E00009F0A2FE2046FFF7B1FD8DF804009DF8F8
:1057F0000430002BA5D1414E414C9A460021372759
:105800003E4829604FF040094FF48068E9606F60BE
:10581000C5F80890C5F8108009F086FE3846FFF7F5
:1058200095FD8DF804009DF80430002B89D12927BF
:105830003248C6F800B07760C6F80890F360C6F842
:10584000108009F071FE676B17F0450FFBD017F061
:10585000040739D0042009F0D1FE03278DF8047025
:105860009DF8040000287FF46CAF09F07DFE00284D
:105870000AF1010A2FDB4FF6FF7CE245BED11B2067
:105880008DF804009DF804005DE713F040032ED16D
:105890001C468DF804409DF80400002890D0002399
:1058A00040224FF48061372414482B60AA60EB60DB
:1058B00029616C6009F038FE2046FFF747FDDFF8EC
:1058C0004CB08DF8040080E740F2FF5009F096FEDE
:1058D000C4E7032330E74FF6FE7EF245CFD810F041
:1058E000804F3FF42EAF074B02225A6029E7402039
:1058F00009F084FE5EE700BF78060020080600205D
:10590000002C014048050020000010C0000010805D
:1059100070B509F001FE002859D05B4D6B68042B6F
:1059200058D05A4C02230026C0224FF48061636095
:1059300020462660A260E660216109F0F5FD544B27
:105940005E6B16F0450FFBD016F0040F39D116F040
:10595000010642D140F2FF5009F050FE304609F0F6
:1059600003FEA860042009F0FFFDE860082009F0AC
:10597000FBFD28610C2009F0F7FD6B686861012BC5
:1059800001D9062B7CD10323002640224FF48061ED
:1059900063603E482660A260E660216109F0C4FDB4
:1059A0003B4B5E6B16F0450FFBD016F0040F08D191
:1059B00016F0010611D109F0D1FD032813D01023F0
:1059C00003E0042009F01AFE0323184670BD2523C6
:1059D000184670BD0023184670BD012009F00EFE68
:1059E0000123184670BD40F2FF5009F007FE304613
:1059F00009F0BAFD10F4604F33D1020C6B68042B30
:105A0000E8D0130409212A6023606160C0230022CA
:105A10004FF48061A3601D48E260216109F084FDBC
:105A20001B4B5C6B14F0450FFBD014F0040FC8D176
:105A300014F00104D1D140F2FF5009F0DFFD2046FF
:105A400009F092FDA861042009F08EFDE8610820AC
:105A500009F08AFD28620C2009F086FD2346686261
:105A6000B3E710F4005F07D110F4804FA7D110F412
:105A7000004F03D00F23A8E71323A6E70122BDE7B9
:105A8000022B80D00122BAE748050020080600203A
:105A9000002C01402DE9F04F89B000208DF81C004A
:105AA00000F0FAFD09F0FEFCFFF708FE8DF81C007F
:105AB0009DF81C3023B19DF81C0009B0BDE8F08FA3
:105AC000FFF726FF8DF81C009DF81C502F46002D77
:105AD000F1D1CA4ECA4C356002213046317575602D
